{
  "contractName": "IdentityManagement",
  "abi": [
    {
      "inputs": [],
      "payable": false,
      "stateMutability": "nonpayable",
      "type": "constructor"
    },
    {
      "constant": false,
      "inputs": [
        {
          "name": "userAddress",
          "type": "address"
        },
        {
          "name": "fullName",
          "type": "string"
        },
        {
          "name": "emailId",
          "type": "string"
        },
        {
          "name": "mobileNo",
          "type": "uint256"
        }
      ],
      "name": "addUser",
      "outputs": [],
      "payable": false,
      "stateMutability": "nonpayable",
      "type": "function"
    },
    {
      "constant": false,
      "inputs": [
        {
          "name": "userAddress",
          "type": "address"
        },
        {
          "name": "tcNo",
          "type": "string"
        },
        {
          "name": "tcFullName",
          "type": "string"
        },
        {
          "name": "tcId",
          "type": "string"
        },
        {
          "name": "tcBirthDate",
          "type": "string"
        },
        {
          "name": "tcAddress",
          "type": "string"
        },
        {
          "name": "tcGreater500kHash",
          "type": "bytes"
        },
        {
          "name": "tcAtLeast1YearHash",
          "type": "bytes"
        },
        {
          "name": "tc10TransHash",
          "type": "bytes"
        }
      ],
      "name": "addUserTraderCert",
      "outputs": [],
      "payable": false,
      "stateMutability": "nonpayable",
      "type": "function"
    },
    {
      "constant": false,
      "inputs": [
        {
          "name": "userAddress",
          "type": "address"
        },
        {
          "name": "requestedBy",
          "type": "string"
        },
        {
          "name": "tcNo",
          "type": "uint256"
        },
        {
          "name": "tcFullNameAndId",
          "type": "uint256"
        },
        {
          "name": "tcBirthDate",
          "type": "uint256"
        },
        {
          "name": "tcAddress",
          "type": "uint256"
        },
        {
          "name": "tcGreater500kHash",
          "type": "uint256"
        },
        {
          "name": "tcAtLeast1YearHash",
          "type": "uint256"
        },
        {
          "name": "tc10TransHash",
          "type": "uint256"
        },
        {
          "name": "requestOverAllStatus",
          "type": "uint256"
        }
      ],
      "name": "addTradeCertRequest",
      "outputs": [],
      "payable": false,
      "stateMutability": "nonpayable",
      "type": "function"
    },
    {
      "constant": true,
      "inputs": [
        {
          "name": "userAddress",
          "type": "address"
        }
      ],
      "name": "viewTradeCertRequestLength",
      "outputs": [
        {
          "name": "",
          "type": "uint256"
        }
      ],
      "payable": false,
      "stateMutability": "view",
      "type": "function"
    },
    {
      "constant": true,
      "inputs": [
        {
          "name": "userAddress",
          "type": "address"
        },
        {
          "name": "requestIndex",
          "type": "uint256"
        }
      ],
      "name": "viewTradeCertRequestHeader",
      "outputs": [
        {
          "name": "requestedBy",
          "type": "string"
        },
        {
          "name": "requestOverAllStatus",
          "type": "uint256"
        }
      ],
      "payable": false,
      "stateMutability": "view",
      "type": "function"
    },
    {
      "constant": true,
      "inputs": [
        {
          "name": "userAddress",
          "type": "address"
        },
        {
          "name": "requestIndex",
          "type": "uint256"
        }
      ],
      "name": "viewTradeCertRequestDetail",
      "outputs": [
        {
          "name": "requestedBy",
          "type": "string"
        },
        {
          "name": "tcNo",
          "type": "uint256"
        },
        {
          "name": "tcFullNameAndId",
          "type": "uint256"
        },
        {
          "name": "tcBirthDate",
          "type": "uint256"
        },
        {
          "name": "tcAddress",
          "type": "uint256"
        },
        {
          "name": "tcGreater500kHash",
          "type": "uint256"
        },
        {
          "name": "tcAtLeast1YearHash",
          "type": "uint256"
        },
        {
          "name": "tc10TransHash",
          "type": "uint256"
        },
        {
          "name": "requestOverAllStatus",
          "type": "uint256"
        }
      ],
      "payable": false,
      "stateMutability": "view",
      "type": "function"
    },
    {
      "constant": false,
      "inputs": [
        {
          "name": "userAddress",
          "type": "address"
        },
        {
          "name": "requestIndex",
          "type": "uint256"
        },
        {
          "name": "tcNo",
          "type": "uint256"
        },
        {
          "name": "tcFullNameAndId",
          "type": "uint256"
        },
        {
          "name": "tcBirthDate",
          "type": "uint256"
        },
        {
          "name": "tcAddress",
          "type": "uint256"
        },
        {
          "name": "tcGreater500kHash",
          "type": "uint256"
        },
        {
          "name": "tcAtLeast1YearHash",
          "type": "uint256"
        },
        {
          "name": "tc10TransHash",
          "type": "uint256"
        },
        {
          "name": "requestOverAllStatus",
          "type": "uint256"
        }
      ],
      "name": "updateRequestStatus",
      "outputs": [],
      "payable": false,
      "stateMutability": "nonpayable",
      "type": "function"
    },
    {
      "constant": true,
      "inputs": [
        {
          "name": "userAddress",
          "type": "address"
        },
        {
          "name": "userIndex",
          "type": "uint256"
        }
      ],
      "name": "viewUser",
      "outputs": [
        {
          "name": "fullName",
          "type": "string"
        },
        {
          "name": "emailId",
          "type": "string"
        },
        {
          "name": "mobileNo",
          "type": "uint256"
        }
      ],
      "payable": false,
      "stateMutability": "view",
      "type": "function"
    },
    {
      "constant": true,
      "inputs": [
        {
          "name": "userAddress",
          "type": "address"
        }
      ],
      "name": "viewUserTraderCert",
      "outputs": [
        {
          "name": "tcNo",
          "type": "string"
        },
        {
          "name": "tcFullNameAndId",
          "type": "string"
        },
        {
          "name": "tcBirthDate",
          "type": "string"
        },
        {
          "name": "tcAddress",
          "type": "string"
        },
        {
          "name": "tcGreater500kHash",
          "type": "bytes"
        },
        {
          "name": "tcAtLeast1YearHash",
          "type": "bytes"
        },
        {
          "name": "tc10TransHash",
          "type": "bytes"
        }
      ],
      "payable": false,
      "stateMutability": "view",
      "type": "function"
    }
  ],
  "bytecode": "0x608060405234801561001057600080fd5b50336000806101000a81548173ffffffffffffffffffffffffffffffffffffffff021916908373ffffffffffffffffffffffffffffffffffffffff1602179055506126b6806100606000396000f3fe608060405234801561001057600080fd5b50600436106100935760003560e01c8063af3f329011610066578063af3f329014610801578063b3c258351461093b578063c9fe484714610ab7578063e004796414610b0f578063e371d24514610e5457610093565b80631dc768c814610098578063278af2a41461016657806371ddabf9146106635780638748180d14610702575b600080fd5b6100e4600480360360408110156100ae57600080fd5b81019080803573ffffffffffffffffffffffffffffffffffffffff16906020019092919080359060200190929190505050610f80565b6040518080602001838152602001828103825284818151815260200191508051906020019080838360005b8381101561012a57808201518184015260208101905061010f565b50505050905090810190601f1680156101575780820380516001836020036101000a031916815260200191505b50935050505060405180910390f35b610661600480360361012081101561017d57600080fd5b81019080803573ffffffffffffffffffffffffffffffffffffffff169060200190929190803590602001906401000000008111156101ba57600080fd5b8201836020820111156101cc57600080fd5b803590602001918460018302840111640100000000831117156101ee57600080fd5b91908080601f016020809104026020016040519081016040528093929190818152602001838380828437600081840152601f19601f8201169050808301925050505050505091929192908035906020019064010000000081111561025157600080fd5b82018360208201111561026357600080fd5b8035906020019184600183028401116401000000008311171561028557600080fd5b91908080601f016020809104026020016040519081016040528093929190818152602001838380828437600081840152601f19601f820116905080830192505050505050509192919290803590602001906401000000008111156102e857600080fd5b8201836020820111156102fa57600080fd5b8035906020019184600183028401116401000000008311171561031c57600080fd5b91908080601f016020809104026020016040519081016040528093929190818152602001838380828437600081840152601f19601f8201169050808301925050505050505091929192908035906020019064010000000081111561037f57600080fd5b82018360208201111561039157600080fd5b803590602001918460018302840111640100000000831117156103b357600080fd5b91908080601f016020809104026020016040519081016040528093929190818152602001838380828437600081840152601f19601f8201169050808301925050505050505091929192908035906020019064010000000081111561041657600080fd5b82018360208201111561042857600080fd5b8035906020019184600183028401116401000000008311171561044a57600080fd5b91908080601f016020809104026020016040519081016040528093929190818152602001838380828437600081840152601f19601f820116905080830192505050505050509192919290803590602001906401000000008111156104ad57600080fd5b8201836020820111156104bf57600080fd5b803590602001918460018302840111640100000000831117156104e157600080fd5b91908080601f016020809104026020016040519081016040528093929190818152602001838380828437600081840152601f19601f8201169050808301925050505050505091929192908035906020019064010000000081111561054457600080fd5b82018360208201111561055657600080fd5b8035906020019184600183028401116401000000008311171561057857600080fd5b91908080601f016020809104026020016040519081016040528093929190818152602001838380828437600081840152601f19601f820116905080830192505050505050509192919290803590602001906401000000008111156105db57600080fd5b8201836020820111156105ed57600080fd5b8035906020019184600183028401116401000000008311171561060f57600080fd5b91908080601f016020809104026020016040519081016040528093929190818152602001838380828437600081840152601f19601f8201169050808301925050505050505091929192905050506110fe565b005b610700600480360361014081101561067a57600080fd5b81019080803573ffffffffffffffffffffffffffffffffffffffff169060200190929190803590602001909291908035906020019092919080359060200190929190803590602001909291908035906020019092919080359060200190929190803590602001909291908035906020019092919080359060200190929190505050611298565b005b61074e6004803603604081101561071857600080fd5b81019080803573ffffffffffffffffffffffffffffffffffffffff169060200190929190803590602001909291905050506115a4565b60405180806020018a815260200189815260200188815260200187815260200186815260200185815260200184815260200183815260200182810382528b818151815260200191508051906020019080838360005b838110156107be5780820151818401526020810190506107a3565b50505050905090810190601f1680156107eb5780820380516001836020036101000a031916815260200191505b509a505050505050505050505060405180910390f35b61084d6004803603604081101561081757600080fd5b81019080803573ffffffffffffffffffffffffffffffffffffffff16906020019092919080359060200190929190505050611763565b604051808060200180602001848152602001838103835286818151815260200191508051906020019080838360005b8381101561089757808201518184015260208101905061087c565b50505050905090810190601f1680156108c45780820380516001836020036101000a031916815260200191505b50838103825285818151815260200191508051906020019080838360005b838110156108fd5780820151818401526020810190506108e2565b50505050905090810190601f16801561092a5780820380516001836020036101000a031916815260200191505b509550505050505060405180910390f35b610ab56004803603608081101561095157600080fd5b81019080803573ffffffffffffffffffffffffffffffffffffffff1690602001909291908035906020019064010000000081111561098e57600080fd5b8201836020820111156109a057600080fd5b803590602001918460018302840111640100000000831117156109c257600080fd5b91908080601f016020809104026020016040519081016040528093929190818152602001838380828437600081840152601f19601f82011690508083019250505050505050919291929080359060200190640100000000811115610a2557600080fd5b820183602082011115610a3757600080fd5b80359060200191846001830284011164010000000083111715610a5957600080fd5b91908080601f016020809104026020016040519081016040528093929190818152602001838380828437600081840152601f19601f82011690508083019250505050505050919291929080359060200190929190505050611946565b005b610af960048036036020811015610acd57600080fd5b81019080803573ffffffffffffffffffffffffffffffffffffffff169060200190929190505050611a18565b6040518082815260200191505060405180910390f35b610b5160048036036020811015610b2557600080fd5b81019080803573ffffffffffffffffffffffffffffffffffffffff169060200190929190505050611a64565b604051808060200180602001806020018060200180602001806020018060200188810388528f818151815260200191508051906020019080838360005b83811015610ba9578082015181840152602081019050610b8e565b50505050905090810190601f168015610bd65780820380516001836020036101000a031916815260200191505b5088810387528e818151815260200191508051906020019080838360005b83811015610c0f578082015181840152602081019050610bf4565b50505050905090810190601f168015610c3c5780820380516001836020036101000a031916815260200191505b5088810386528d818151815260200191508051906020019080838360005b83811015610c75578082015181840152602081019050610c5a565b50505050905090810190601f168015610ca25780820380516001836020036101000a031916815260200191505b5088810385528c818151815260200191508051906020019080838360005b83811015610cdb578082015181840152602081019050610cc0565b50505050905090810190601f168015610d085780820380516001836020036101000a031916815260200191505b5088810384528b818151815260200191508051906020019080838360005b83811015610d41578082015181840152602081019050610d26565b50505050905090810190601f168015610d6e5780820380516001836020036101000a031916815260200191505b5088810383528a818151815260200191508051906020019080838360005b83811015610da7578082015181840152602081019050610d8c565b50505050905090810190601f168015610dd45780820380516001836020036101000a031916815260200191505b50888103825289818151815260200191508051906020019080838360005b83811015610e0d578082015181840152602081019050610df2565b50505050905090810190601f168015610e3a5780820380516001836020036101000a031916815260200191505b509e50505050505050505050505050505060405180910390f35b610f7e6004803603610140811015610e6b57600080fd5b81019080803573ffffffffffffffffffffffffffffffffffffffff16906020019092919080359060200190640100000000811115610ea857600080fd5b820183602082011115610eba57600080fd5b80359060200191846001830284011164010000000083111715610edc57600080fd5b91908080601f016020809104026020016040519081016040528093929190818152602001838380828437600081840152601f19601f82011690508083019250505050505050919291929080359060200190929190803590602001909291908035906020019092919080359060200190929190803590602001909291908035906020019092919080359060200190929190803590602001909291905050506120c6565b005b60606000610f8c6124b3565b600360008673ffffffffffffffffffffffffffffffffffffffff1673ffffffffffffffffffffffffffffffffffffffff1681526020019081526020016000208481548110610fd657fe5b906000526020600020906009020160405180610120016040529081600082018054600181600116156101000203166002900480601f0160208091040260200160405190810160405280929190818152602001828054600181600116156101000203166002900480156110895780601f1061105e57610100808354040283529160200191611089565b820191906000526020600020905b81548152906001019060200180831161106c57829003601f168201915b50505050508152602001600182015481526020016002820154815260200160038201548152602001600482015481526020016005820154815260200160068201548152602001600782015481526020016008820154815250509050806000015181610100015181915092509250509250929050565b600260008a73ffffffffffffffffffffffffffffffffffffffff1673ffffffffffffffffffffffffffffffffffffffff1681526020019081526020016000206040518061010001604052808a8152602001898152602001888152602001878152602001868152602001858152602001848152602001838152509080600181540180825580915050906001820390600052602060002090600802016000909192909190915060008201518160000190805190602001906111be9291906124ff565b5060208201518160010190805190602001906111db9291906124ff565b5060408201518160020190805190602001906111f89291906124ff565b5060608201518160030190805190602001906112159291906124ff565b5060808201518160040190805190602001906112329291906124ff565b5060a082015181600501908051906020019061124f92919061257f565b5060c082015181600601908051906020019061126c92919061257f565b5060e082015181600701908051906020019061128992919061257f565b50505050505050505050505050565b87600360008c73ffffffffffffffffffffffffffffffffffffffff1673ffffffffffffffffffffffffffffffffffffffff1681526020019081526020016000208a815481106112e357fe5b90600052602060002090600902016001018190555086600360008c73ffffffffffffffffffffffffffffffffffffffff1673ffffffffffffffffffffffffffffffffffffffff1681526020019081526020016000208a8154811061134357fe5b90600052602060002090600902016002018190555085600360008c73ffffffffffffffffffffffffffffffffffffffff1673ffffffffffffffffffffffffffffffffffffffff1681526020019081526020016000208a815481106113a357fe5b90600052602060002090600902016003018190555084600360008c73ffffffffffffffffffffffffffffffffffffffff1673ffffffffffffffffffffffffffffffffffffffff1681526020019081526020016000208a8154811061140357fe5b90600052602060002090600902016004018190555083600360008c73ffffffffffffffffffffffffffffffffffffffff1673ffffffffffffffffffffffffffffffffffffffff1681526020019081526020016000208a8154811061146357fe5b90600052602060002090600902016005018190555082600360008c73ffffffffffffffffffffffffffffffffffffffff1673ffffffffffffffffffffffffffffffffffffffff1681526020019081526020016000208a815481106114c357fe5b90600052602060002090600902016006018190555081600360008c73ffffffffffffffffffffffffffffffffffffffff1673ffffffffffffffffffffffffffffffffffffffff1681526020019081526020016000208a8154811061152357fe5b90600052602060002090600902016007018190555080600360008c73ffffffffffffffffffffffffffffffffffffffff1673ffffffffffffffffffffffffffffffffffffffff1681526020019081526020016000208a8154811061158357fe5b90600052602060002090600902016008018190555050505050505050505050565b60606000806000806000806000806115ba6124b3565b600360008d73ffffffffffffffffffffffffffffffffffffffff1673ffffffffffffffffffffffffffffffffffffffff1681526020019081526020016000208b8154811061160457fe5b906000526020600020906009020160405180610120016040529081600082018054600181600116156101000203166002900480601f0160208091040260200160405190810160405280929190818152602001828054600181600116156101000203166002900480156116b75780601f1061168c576101008083540402835291602001916116b7565b820191906000526020600020905b81548152906001019060200180831161169a57829003601f168201915b50505050508152602001600182015481526020016002820154815260200160038201548152602001600482015481526020016005820154815260200160068201548152602001600782015481526020016008820154815250509050806000015181602001518260400151836060015184608001518560a001518660c001518760e00151886101000151889850995099509950995099509950995099509950509295985092959850929598565b60608060006117706125ff565b600160008773ffffffffffffffffffffffffffffffffffffffff1673ffffffffffffffffffffffffffffffffffffffff16815260200190815260200160002085815481106117ba57fe5b9060005260206000209060030201604051806060016040529081600082018054600181600116156101000203166002900480601f01602080910402602001604051908101604052809291908181526020018280546001816001161561010002031660029004801561186c5780601f106118415761010080835404028352916020019161186c565b820191906000526020600020905b81548152906001019060200180831161184f57829003601f168201915b50505050508152602001600182018054600181600116156101000203166002900480601f01602080910402602001604051908101604052809291908181526020018280546001816001161561010002031660029004801561190e5780601f106118e35761010080835404028352916020019161190e565b820191906000526020600020905b8154815290600101906020018083116118f157829003601f168201915b505050505081526020016002820154815250509050806000015181602001518260400151829250819150935093509350509250925092565b600160008573ffffffffffffffffffffffffffffffffffffffff1673ffffffffffffffffffffffffffffffffffffffff1681526020019081526020016000206040518060600160405280858152602001848152602001838152509080600181540180825580915050906001820390600052602060002090600302016000909192909190915060008201518160000190805190602001906119e79291906124ff565b506020820151816001019080519060200190611a049291906124ff565b506040820151816002015550505050505050565b6000600360008373ffffffffffffffffffffffffffffffffffffffff1673ffffffffffffffffffffffffffffffffffffffff168152602001908152602001600020805490509050919050565b6060806060806060806060611a77612620565b600260008a73ffffffffffffffffffffffffffffffffffffffff1673ffffffffffffffffffffffffffffffffffffffff168152602001908152602001600020600081548110611ac257fe5b906000526020600020906008020160405180610100016040529081600082018054600181600116156101000203166002900480601f016020809104026020016040519081016040528092919081815260200182805460018160011615610100020316600290048015611b755780601f10611b4a57610100808354040283529160200191611b75565b820191906000526020600020905b815481529060010190602001808311611b5857829003601f168201915b50505050508152602001600182018054600181600116156101000203166002900480601f016020809104026020016040519081016040528092919081815260200182805460018160011615610100020316600290048015611c175780601f10611bec57610100808354040283529160200191611c17565b820191906000526020600020905b815481529060010190602001808311611bfa57829003601f168201915b50505050508152602001600282018054600181600116156101000203166002900480601f016020809104026020016040519081016040528092919081815260200182805460018160011615610100020316600290048015611cb95780601f10611c8e57610100808354040283529160200191611cb9565b820191906000526020600020905b815481529060010190602001808311611c9c57829003601f168201915b50505050508152602001600382018054600181600116156101000203166002900480601f016020809104026020016040519081016040528092919081815260200182805460018160011615610100020316600290048015611d5b5780601f10611d3057610100808354040283529160200191611d5b565b820191906000526020600020905b815481529060010190602001808311611d3e57829003601f168201915b50505050508152602001600482018054600181600116156101000203166002900480601f016020809104026020016040519081016040528092919081815260200182805460018160011615610100020316600290048015611dfd5780601f10611dd257610100808354040283529160200191611dfd565b820191906000526020600020905b815481529060010190602001808311611de057829003601f168201915b50505050508152602001600582018054600181600116156101000203166002900480601f016020809104026020016040519081016040528092919081815260200182805460018160011615610100020316600290048015611e9f5780601f10611e7457610100808354040283529160200191611e9f565b820191906000526020600020905b815481529060010190602001808311611e8257829003601f168201915b50505050508152602001600682018054600181600116156101000203166002900480601f016020809104026020016040519081016040528092919081815260200182805460018160011615610100020316600290048015611f415780601f10611f1657610100808354040283529160200191611f41565b820191906000526020600020905b815481529060010190602001808311611f2457829003601f168201915b50505050508152602001600782018054600181600116156101000203166002900480601f016020809104026020016040519081016040528092919081815260200182805460018160011615610100020316600290048015611fe35780601f10611fb857610100808354040283529160200191611fe3565b820191906000526020600020905b815481529060010190602001808311611fc657829003601f168201915b5050505050815250509050806000015161208182602001516040518060400160405280600281526020017f202800000000000000000000000000000000000000000000000000000000000081525084604001516040518060400160405280600181526020017f2900000000000000000000000000000000000000000000000000000000000000815250604051806020016040528060008152506121ed565b826060015183608001518460a001518560c001518660e00151869650849450839350829250819150809050975097509750975097509750975050919395979092949650565b600360008b73ffffffffffffffffffffffffffffffffffffffff1673ffffffffffffffffffffffffffffffffffffffff1681526020019081526020016000206040518061012001604052808b81526020018a81526020018981526020018881526020018781526020018681526020018581526020018481526020018381525090806001815401808255809150509060018203906000526020600020906009020160009091929091909150600082015181600001908051906020019061218c9291906124ff565b506020820151816001015560408201518160020155606082015181600301556080820151816004015560a0820151816005015560c0820151816006015560e08201518160070155610100820151816008015550505050505050505050505050565b6060808690506060869050606086905060608690506060869050606081518351855187518951010101016040519080825280601f01601f1916602001820160405280156122495781602001600182028038833980820191505090505b5090506060819050600080905060008090505b88518110156122ca5788818151811061227157fe5b602001015160f81c60f81b83838060010194508151811061228e57fe5b60200101907effffffffffffffffffffffffffffffffffffffffffffffffffffffffffffff1916908160001a905350808060010191505061225c565b5060008090505b875181101561233f578781815181106122e657fe5b602001015160f81c60f81b83838060010194508151811061230357fe5b60200101907effffffffffffffffffffffffffffffffffffffffffffffffffffffffffffff1916908160001a90535080806001019150506122d1565b5060008090505b86518110156123b45786818151811061235b57fe5b602001015160f81c60f81b83838060010194508151811061237857fe5b60200101907effffffffffffffffffffffffffffffffffffffffffffffffffffffffffffff1916908160001a9053508080600101915050612346565b5060008090505b8551811015612429578581815181106123d057fe5b602001015160f81c60f81b8383806001019450815181106123ed57fe5b60200101907effffffffffffffffffffffffffffffffffffffffffffffffffffffffffffff1916908160001a90535080806001019150506123bb565b5060008090505b845181101561249e5784818151811061244557fe5b602001015160f81c60f81b83838060010194508151811061246257fe5b60200101907effffffffffffffffffffffffffffffffffffffffffffffffffffffffffffff1916908160001a9053508080600101915050612430565b50819850505050505050505095945050505050565b6040518061012001604052806060815260200160008152602001600081526020016000815260200160008152602001600081526020016000815260200160008152602001600081525090565b828054600181600116156101000203166002900490600052602060002090601f016020900481019282601f1061254057805160ff191683800117855561256e565b8280016001018555821561256e579182015b8281111561256d578251825591602001919060010190612552565b5b50905061257b9190612665565b5090565b828054600181600116156101000203166002900490600052602060002090601f016020900481019282601f106125c057805160ff19168380011785556125ee565b828001600101855582156125ee579182015b828111156125ed5782518255916020019190600101906125d2565b5b5090506125fb9190612665565b5090565b60405180606001604052806060815260200160608152602001600081525090565b60405180610100016040528060608152602001606081526020016060815260200160608152602001606081526020016060815260200160608152602001606081525090565b61268791905b8082111561268357600081600090555060010161266b565b5090565b9056fea165627a7a72305820d737d40f5afb33c55ceb6ab8d5102776c35b2cadab5018ec1a6d984354cf28e20029",
  "source": "pragma solidity ^0.5.8;\n\ncontract IdentityManagement\n{\n\n    address contractOwner;\n    \n    constructor() public {\n        contractOwner = msg.sender;\n    }\n\n    struct UserInfo{\n\t\tstring fullName;\n\t\tstring emailId;\n\t\tuint mobileNo;\n    }\n    \n    struct UserTraderCert{\n\t\tstring tcNo;\n\t\tstring tcFullName;\n                        string tcId;\n\t\tstring tcBirthDate;\n\t\tstring tcAddress;\n                        bytes tcGreater500kHash;\n                        bytes tcAtLeast1YearHash; \n                        bytes tc10TransHash;\n    }\n\n    struct TradeCertRequest{\n\t\tstring requestedBy;\n                        uint tcNo;\n                        uint tcFullNameAndId;\n                        uint tcBirthDate;\n                        uint tcAddress;\n                        uint tcGreater500kHash;\n                        uint tcAtLeast1YearHash; \n                        uint tc10TransHash;\n                        uint requestOverAllStatus;\n    }\n\n    /*\n            ApprovalStatus\n        -------------\n        0 --  default status\n        1 --  Requested\n        2 --  Approved\n        3 --  Rejected\n    */\n\n    mapping(address => UserInfo[]) userMap;\n    mapping(address => UserTraderCert[]) userTraderCertMap;\n    mapping(address => TradeCertRequest[]) tradeCertRequestMap;\n\t\n    function addUser(address userAddress, string memory fullName, string memory emailId, uint mobileNo) public\n    {\n        userMap[userAddress].push(UserInfo(fullName, emailId, mobileNo));\n    }\n\n    function addUserTraderCert(address userAddress, string memory tcNo, string memory tcFullName, string memory tcId, string memory tcBirthDate, string memory tcAddress, bytes memory tcGreater500kHash, bytes memory tcAtLeast1YearHash, bytes memory tc10TransHash) public\n    {\n        userTraderCertMap[userAddress].push(UserTraderCert(tcNo,  tcFullName, tcId, tcBirthDate, tcAddress, tcGreater500kHash,  tcAtLeast1YearHash, tc10TransHash));\n    }\n\n    function addTradeCertRequest(address userAddress, string memory requestedBy, uint tcNo, uint tcFullNameAndId, uint tcBirthDate, uint tcAddress, uint tcGreater500kHash, uint tcAtLeast1YearHash, uint tc10TransHash, uint requestOverAllStatus) public\n    {\n        tradeCertRequestMap[userAddress].push(TradeCertRequest(requestedBy, tcNo, tcFullNameAndId, tcBirthDate, tcAddress, tcGreater500kHash, tcAtLeast1YearHash, tc10TransHash, requestOverAllStatus));\n    }\n\n    function viewTradeCertRequestLength(address userAddress) public view returns(uint) \n    {\n        return tradeCertRequestMap[userAddress].length;\n    }\n\n    function viewTradeCertRequestHeader(address userAddress, uint requestIndex) public view returns(string memory requestedBy, uint requestOverAllStatus) \n    {\n        TradeCertRequest memory thisTradeCertRequest= tradeCertRequestMap[userAddress][requestIndex];\n        return (thisTradeCertRequest.requestedBy, thisTradeCertRequest.requestOverAllStatus);\n    }\n\n    function viewTradeCertRequestDetail(address userAddress, uint requestIndex) public view returns(string memory requestedBy, uint tcNo, uint tcFullNameAndId, uint tcBirthDate, uint tcAddress,  uint tcGreater500kHash, uint tcAtLeast1YearHash, uint tc10TransHash, uint requestOverAllStatus\n    ) \n    {\n        TradeCertRequest memory thisTradeCertRequest= tradeCertRequestMap[userAddress][requestIndex];\n        return (thisTradeCertRequest.requestedBy, thisTradeCertRequest.tcNo, thisTradeCertRequest.tcFullNameAndId, thisTradeCertRequest.tcBirthDate, thisTradeCertRequest.tcAddress, thisTradeCertRequest.tcGreater500kHash, thisTradeCertRequest.tcAtLeast1YearHash, thisTradeCertRequest.tc10TransHash, thisTradeCertRequest.requestOverAllStatus);\n    }\n\n    function updateRequestStatus(address userAddress, uint requestIndex, uint tcNo, uint tcFullNameAndId, uint tcBirthDate, uint tcAddress, uint tcGreater500kHash, uint tcAtLeast1YearHash, uint tc10TransHash, uint requestOverAllStatus) public\n    {\n            tradeCertRequestMap[userAddress][requestIndex].tcNo = tcNo;\n            tradeCertRequestMap[userAddress][requestIndex].tcFullNameAndId = tcFullNameAndId;\n            tradeCertRequestMap[userAddress][requestIndex].tcBirthDate = tcBirthDate;\n            tradeCertRequestMap[userAddress][requestIndex].tcAddress = tcAddress;\n            tradeCertRequestMap[userAddress][requestIndex].tcGreater500kHash = tcGreater500kHash;\n            tradeCertRequestMap[userAddress][requestIndex].tcAtLeast1YearHash = tcAtLeast1YearHash;\n            tradeCertRequestMap[userAddress][requestIndex].tc10TransHash = tc10TransHash;\n            tradeCertRequestMap[userAddress][requestIndex].requestOverAllStatus = requestOverAllStatus;\n    }\n\n    function viewUser(address userAddress, uint userIndex) public view returns(string memory fullName, string memory emailId, uint mobileNo) \n    {\n        UserInfo memory thisUser = userMap[userAddress][userIndex];\n        return (thisUser.fullName, thisUser.emailId, thisUser.mobileNo);\n    }\n\n    function viewUserTraderCert(address userAddress) public view returns(string memory tcNo, string memory tcFullNameAndId, string memory tcBirthDate, string memory tcAddress, bytes memory tcGreater500kHash, bytes memory tcAtLeast1YearHash, bytes memory tc10TransHash)\n    {\n        UserTraderCert memory thisUserTraderCert = userTraderCertMap[userAddress][0];\n        return (thisUserTraderCert.tcNo, \n        strConcat(thisUserTraderCert.tcFullName, \" (\",  thisUserTraderCert.tcId, \")\", \"\"),\n        thisUserTraderCert.tcBirthDate, \n        thisUserTraderCert.tcAddress, thisUserTraderCert.tcGreater500kHash, \n        thisUserTraderCert.tcAtLeast1YearHash, \n        thisUserTraderCert.tc10TransHash);\n    }\n\n    function strConcat(string memory _a, string memory _b, string memory _c, string memory _d, string memory _e) internal view returns (string memory){\n        bytes memory _ba = bytes(_a);\n        bytes memory _bb = bytes(_b);\n        bytes memory _bc = bytes(_c);\n        bytes memory _bd = bytes(_d);\n        bytes memory _be = bytes(_e);\n        string memory abcde = new string(_ba.length + _bb.length + _bc.length + _bd.length + _be.length);\n        bytes memory babcde = bytes(abcde);\n        uint k = 0;\n        for (uint i = 0; i < _ba.length; i++) babcde[k++] = _ba[i];\n        for (uint i = 0; i < _bb.length; i++) babcde[k++] = _bb[i];\n        for (uint i = 0; i < _bc.length; i++) babcde[k++] = _bc[i];\n        for (uint i = 0; i < _bd.length; i++) babcde[k++] = _bd[i];\n        for (uint i = 0; i < _be.length; i++) babcde[k++] = _be[i];\n        return string(babcde);\n    }\n}\n",
  "sourcePath": "/home/daniel/master/Identity-Management-Angular/contracts/IdentityManagement.sol",
  "compiler": {
    "name": "solc",
    "version": "0.5.8+commit.23d335f2.Emscripten.clang"
  },
  "schemaVersion": "3.0.10",
  "updatedAt": "2019-07-07T07:26:41.169Z",
  "devdoc": {
    "methods": {}
  },
  "userdoc": {
    "methods": {}
  }
}