{
  "contractName": "Tether",
  "abi": [
    {
      "inputs": [],
      "stateMutability": "nonpayable",
      "type": "constructor"
    },
    {
      "anonymous": false,
      "inputs": [
        {
          "indexed": true,
          "internalType": "address",
          "name": "_owner",
          "type": "address"
        },
        {
          "indexed": true,
          "internalType": "address",
          "name": "_to",
          "type": "address"
        },
        {
          "indexed": false,
          "internalType": "uint256",
          "name": "_value",
          "type": "uint256"
        }
      ],
      "name": "Approval",
      "type": "event"
    },
    {
      "anonymous": false,
      "inputs": [
        {
          "indexed": true,
          "internalType": "address",
          "name": "_from",
          "type": "address"
        },
        {
          "indexed": true,
          "internalType": "address",
          "name": "_to",
          "type": "address"
        },
        {
          "indexed": false,
          "internalType": "uint256",
          "name": "_value",
          "type": "uint256"
        }
      ],
      "name": "Transfer",
      "type": "event"
    },
    {
      "inputs": [
        {
          "internalType": "address",
          "name": "",
          "type": "address"
        },
        {
          "internalType": "address",
          "name": "",
          "type": "address"
        }
      ],
      "name": "allowance",
      "outputs": [
        {
          "internalType": "uint256",
          "name": "",
          "type": "uint256"
        }
      ],
      "stateMutability": "view",
      "type": "function",
      "constant": true
    },
    {
      "inputs": [
        {
          "internalType": "address",
          "name": "",
          "type": "address"
        }
      ],
      "name": "balanceOf",
      "outputs": [
        {
          "internalType": "uint256",
          "name": "",
          "type": "uint256"
        }
      ],
      "stateMutability": "view",
      "type": "function",
      "constant": true
    },
    {
      "inputs": [],
      "name": "decimal",
      "outputs": [
        {
          "internalType": "uint8",
          "name": "",
          "type": "uint8"
        }
      ],
      "stateMutability": "view",
      "type": "function",
      "constant": true
    },
    {
      "inputs": [],
      "name": "name",
      "outputs": [
        {
          "internalType": "string",
          "name": "",
          "type": "string"
        }
      ],
      "stateMutability": "view",
      "type": "function",
      "constant": true
    },
    {
      "inputs": [],
      "name": "symbol",
      "outputs": [
        {
          "internalType": "string",
          "name": "",
          "type": "string"
        }
      ],
      "stateMutability": "view",
      "type": "function",
      "constant": true
    },
    {
      "inputs": [],
      "name": "totalSupply",
      "outputs": [
        {
          "internalType": "uint256",
          "name": "",
          "type": "uint256"
        }
      ],
      "stateMutability": "view",
      "type": "function",
      "constant": true
    },
    {
      "inputs": [
        {
          "internalType": "address",
          "name": "_to",
          "type": "address"
        },
        {
          "internalType": "uint256",
          "name": "_value",
          "type": "uint256"
        }
      ],
      "name": "transfer",
      "outputs": [
        {
          "internalType": "bool",
          "name": "success",
          "type": "bool"
        }
      ],
      "stateMutability": "nonpayable",
      "type": "function"
    },
    {
      "inputs": [
        {
          "internalType": "address",
          "name": "_spender",
          "type": "address"
        },
        {
          "internalType": "uint256",
          "name": "_value",
          "type": "uint256"
        }
      ],
      "name": "approve",
      "outputs": [
        {
          "internalType": "bool",
          "name": "success",
          "type": "bool"
        }
      ],
      "stateMutability": "nonpayable",
      "type": "function"
    },
    {
      "inputs": [
        {
          "internalType": "address",
          "name": "_from",
          "type": "address"
        },
        {
          "internalType": "address",
          "name": "_to",
          "type": "address"
        },
        {
          "internalType": "uint256",
          "name": "_value",
          "type": "uint256"
        }
      ],
      "name": "transferFrom",
      "outputs": [
        {
          "internalType": "bool",
          "name": "success",
          "type": "bool"
        }
      ],
      "stateMutability": "nonpayable",
      "type": "function"
    }
  ],
  "bytecode": "0x60806040526040518060400160405280600c81526020017f54657468657220546f6b656e0000000000000000000000000000000000000000815250600090816200004a919062000390565b506040518060400160405280600481526020017f55534454000000000000000000000000000000000000000000000000000000008152506001908162000091919062000390565b5069d3c21bcecceda10000006002556012600360006101000a81548160ff021916908360ff160217905550348015620000c957600080fd5b50600254600460003373ffffffffffffffffffffffffffffffffffffffff1673ffffffffffffffffffffffffffffffffffffffff1681526020019081526020016000208190555062000477565b600081519050919050565b7f4e487b7100000000000000000000000000000000000000000000000000000000600052604160045260246000fd5b7f4e487b7100000000000000000000000000000000000000000000000000000000600052602260045260246000fd5b600060028204905060018216806200019857607f821691505b602082108103620001ae57620001ad62000150565b5b50919050565b60008190508160005260206000209050919050565b60006020601f8301049050919050565b600082821b905092915050565b600060088302620002187fffffffffffffffffffffffffffffffffffffffffffffffffffffffffffffffff82620001d9565b620002248683620001d9565b95508019841693508086168417925050509392505050565b6000819050919050565b6000819050919050565b6000620002716200026b62000265846200023c565b62000246565b6200023c565b9050919050565b6000819050919050565b6200028d8362000250565b620002a56200029c8262000278565b848454620001e6565b825550505050565b600090565b620002bc620002ad565b620002c981848462000282565b505050565b5b81811015620002f157620002e5600082620002b2565b600181019050620002cf565b5050565b601f82111562000340576200030a81620001b4565b6200031584620001c9565b8101602085101562000325578190505b6200033d6200033485620001c9565b830182620002ce565b50505b505050565b600082821c905092915050565b6000620003656000198460080262000345565b1980831691505092915050565b600062000380838362000352565b9150826002028217905092915050565b6200039b8262000116565b67ffffffffffffffff811115620003b757620003b662000121565b5b620003c382546200017f565b620003d0828285620002f5565b600060209050601f831160018114620004085760008415620003f3578287015190505b620003ff858262000372565b8655506200046f565b601f1984166200041886620001b4565b60005b8281101562000442578489015182556001820191506020850194506020810190506200041b565b868310156200046257848901516200045e601f89168262000352565b8355505b6001600288020188555050505b505050505050565b610c6280620004876000396000f3fe608060405234801561001057600080fd5b50600436106100935760003560e01c806370a082311161006657806370a082311461013457806376809ce31461016457806395d89b4114610182578063a9059cbb146101a0578063dd62ed3e146101d057610093565b806306fdde0314610098578063095ea7b3146100b657806318160ddd146100e657806323b872dd14610104575b600080fd5b6100a0610200565b6040516100ad91906108e3565b60405180910390f35b6100d060048036038101906100cb919061099e565b61028e565b6040516100dd91906109f9565b60405180910390f35b6100ee610380565b6040516100fb9190610a23565b60405180910390f35b61011e60048036038101906101199190610a3e565b610386565b60405161012b91906109f9565b60405180910390f35b61014e60048036038101906101499190610a91565b61060c565b60405161015b9190610a23565b60405180910390f35b61016c610624565b6040516101799190610ada565b60405180910390f35b61018a610637565b60405161019791906108e3565b60405180910390f35b6101ba60048036038101906101b5919061099e565b6106c5565b6040516101c791906109f9565b60405180910390f35b6101ea60048036038101906101e59190610af5565b61082e565b6040516101f79190610a23565b60405180910390f35b6000805461020d90610b64565b80601f016020809104026020016040519081016040528092919081815260200182805461023990610b64565b80156102865780601f1061025b57610100808354040283529160200191610286565b820191906000526020600020905b81548152906001019060200180831161026957829003601f168201915b505050505081565b600081600560003373ffffffffffffffffffffffffffffffffffffffff1673ffffffffffffffffffffffffffffffffffffffff16815260200190815260200160002060008573ffffffffffffffffffffffffffffffffffffffff1673ffffffffffffffffffffffffffffffffffffffff168152602001908152602001600020819055508273ffffffffffffffffffffffffffffffffffffffff163373ffffffffffffffffffffffffffffffffffffffff167f8c5be1e5ebec7d5bd14f71427d1e84f3dd0314c0f7b2291e5b200ac8c7c3b9258460405161036e9190610a23565b60405180910390a36001905092915050565b60025481565b6000600460008573ffffffffffffffffffffffffffffffffffffffff1673ffffffffffffffffffffffffffffffffffffffff168152602001908152602001600020548211156103d457600080fd5b600560008573ffffffffffffffffffffffffffffffffffffffff1673ffffffffffffffffffffffffffffffffffffffff16815260200190815260200160002060003373ffffffffffffffffffffffffffffffffffffffff1673ffffffffffffffffffffffffffffffffffffffff1681526020019081526020016000205482111561045d57600080fd5b81600460008673ffffffffffffffffffffffffffffffffffffffff1673ffffffffffffffffffffffffffffffffffffffff16815260200190815260200160002060008282546104ac9190610bc4565b9250508190555081600460008573ffffffffffffffffffffffffffffffffffffffff1673ffffffffffffffffffffffffffffffffffffffff16815260200190815260200160002060008282546105029190610bf8565b9250508190555081600560008673ffffffffffffffffffffffffffffffffffffffff1673ffffffffffffffffffffffffffffffffffffffff16815260200190815260200160002060003373ffffffffffffffffffffffffffffffffffffffff1673ffffffffffffffffffffffffffffffffffffffff16815260200190815260200160002060008282546105959190610bc4565b925050819055508273ffffffffffffffffffffffffffffffffffffffff168473ffffffffffffffffffffffffffffffffffffffff167fddf252ad1be2c89b69c2b068fc378daa952ba7f163c4a11628f55a4df523b3ef846040516105f99190610a23565b60405180910390a3600190509392505050565b60046020528060005260406000206000915090505481565b600360009054906101000a900460ff1681565b6001805461064490610b64565b80601f016020809104026020016040519081016040528092919081815260200182805461067090610b64565b80156106bd5780601f10610692576101008083540402835291602001916106bd565b820191906000526020600020905b8154815290600101906020018083116106a057829003601f168201915b505050505081565b600081600460003373ffffffffffffffffffffffffffffffffffffffff1673ffffffffffffffffffffffffffffffffffffffff16815260200190815260200160002054101561071357600080fd5b81600460003373ffffffffffffffffffffffffffffffffffffffff1673ffffffffffffffffffffffffffffffffffffffff16815260200190815260200160002060008282546107629190610bc4565b9250508190555081600460008573ffffffffffffffffffffffffffffffffffffffff1673ffffffffffffffffffffffffffffffffffffffff16815260200190815260200160002060008282546107b89190610bf8565b925050819055508273ffffffffffffffffffffffffffffffffffffffff163373ffffffffffffffffffffffffffffffffffffffff167fddf252ad1be2c89b69c2b068fc378daa952ba7f163c4a11628f55a4df523b3ef8460405161081c9190610a23565b60405180910390a36001905092915050565b6005602052816000526040600020602052806000526040600020600091509150505481565b600081519050919050565b600082825260208201905092915050565b60005b8381101561088d578082015181840152602081019050610872565b60008484015250505050565b6000601f19601f8301169050919050565b60006108b582610853565b6108bf818561085e565b93506108cf81856020860161086f565b6108d881610899565b840191505092915050565b600060208201905081810360008301526108fd81846108aa565b905092915050565b600080fd5b600073ffffffffffffffffffffffffffffffffffffffff82169050919050565b60006109358261090a565b9050919050565b6109458161092a565b811461095057600080fd5b50565b6000813590506109628161093c565b92915050565b6000819050919050565b61097b81610968565b811461098657600080fd5b50565b60008135905061099881610972565b92915050565b600080604083850312156109b5576109b4610905565b5b60006109c385828601610953565b92505060206109d485828601610989565b9150509250929050565b60008115159050919050565b6109f3816109de565b82525050565b6000602082019050610a0e60008301846109ea565b92915050565b610a1d81610968565b82525050565b6000602082019050610a386000830184610a14565b92915050565b600080600060608486031215610a5757610a56610905565b5b6000610a6586828701610953565b9350506020610a7686828701610953565b9250506040610a8786828701610989565b9150509250925092565b600060208284031215610aa757610aa6610905565b5b6000610ab584828501610953565b91505092915050565b600060ff82169050919050565b610ad481610abe565b82525050565b6000602082019050610aef6000830184610acb565b92915050565b60008060408385031215610b0c57610b0b610905565b5b6000610b1a85828601610953565b9250506020610b2b85828601610953565b9150509250929050565b7f4e487b7100000000000000000000000000000000000000000000000000000000600052602260045260246000fd5b60006002820490506001821680610b7c57607f821691505b602082108103610b8f57610b8e610b35565b5b50919050565b7f4e487b7100000000000000000000000000000000000000000000000000000000600052601160045260246000fd5b6000610bcf82610968565b9150610bda83610968565b9250828203905081811115610bf257610bf1610b95565b5b92915050565b6000610c0382610968565b9150610c0e83610968565b9250828201905080821115610c2657610c25610b95565b5b9291505056fea26469706673582212201d67ec53498ad77bb27741addf8a2b36872ba88623ae110cc341f39022c31f4f64736f6c63430008130033",
  "immutableReferences": {},
  "source": "// SPDX-License-Identifier: GPL-3.0\r\npragma solidity >=0.8.0;\r\n\r\ncontract Tether {\r\n    string public name = \"Tether Token\";\r\n    string public symbol = \"USDT\";\r\n    uint256 public totalSupply = 1000000000000000000000000;\r\n    uint8 public decimal = 18;\r\n\r\n    event Transfer(address indexed _from, address indexed _to, uint256 _value);\r\n    event Approval(address indexed _owner, address indexed _to, uint256 _value);\r\n\r\n    mapping(address => uint256) public balanceOf;\r\n    mapping(address => mapping(address => uint256)) public allowance;\r\n\r\n    constructor() {\r\n      balanceOf[msg.sender] = totalSupply;\r\n    }\r\n\r\n    function transfer(address _to, uint256 _value) public returns (bool success) {\r\n      require(balanceOf[msg.sender] >= _value);\r\n      balanceOf[msg.sender] -= _value;\r\n      balanceOf[_to] += _value;\r\n      emit Transfer(msg.sender, _to, _value);\r\n      return true;\r\n    }\r\n\r\n    function approve(address _spender, uint256 _value) public returns (bool success) {\r\n      allowance[msg.sender][_spender] = _value;\r\n      emit Approval(msg.sender, _spender, _value);\r\n      return true;\r\n    }\r\n\r\n    function transferFrom(address _from, address _to, uint256 _value) public returns (bool success) {\r\n        require(_value <= balanceOf[_from]);\r\n        require(_value <= allowance[_from][msg.sender]);\r\n        balanceOf[_from] -= _value;\r\n        balanceOf[_to] += _value;\r\n        allowance[_from][msg.sender] -= _value;\r\n        emit Transfer(_from, _to, _value);\r\n        return true;\r\n    }\r\n\r\n\r\n}\r\n",
  "sourcePath": "C:\\Users\\roves\\OneDrive\\Documenti\\GitHub\\Stage-e-tesi-UniPD\\Stage\\solidity-examples\\DeFi-Token-Staking-App\\src\\contracts\\Tether.sol",
  "compiler": {
    "name": "solc",
    "version": "0.8.19+commit.7dd6d404.Emscripten.clang"
  },
  "schemaVersion": "3.4.13",
  "updatedAt": "2023-04-05T10:06:05.319Z",
  "networkType": "ethereum",
  "devdoc": {
    "kind": "dev",
    "methods": {},
    "version": 1
  },
  "userdoc": {
    "kind": "user",
    "methods": {},
    "version": 1
  }
}