{
	"data": {
		"bytecode": {
			"linkReferences": {},
			"object": "608060405234801561001057600080fd5b506104ff806100206000396000f3fe608060405234801561001057600080fd5b50600436106100575760003560e01c80630dbe671f1461005c57806334c5d2ce1461007a5780634df7e3d014610096578063b694ba4f146100b4578063c3da42b8146100e4575b600080fd5b610064610102565b6040516100719190610372565b60405180910390f35b610094600480360381019061008f91906102b4565b610108565b005b61009e610122565b6040516100ab9190610372565b60405180910390f35b6100ce60048036038101906100c9919061024d565b610128565b6040516100db9190610357565b60405180910390f35b6100ec61021d565b6040516100f99190610372565b60405180910390f35b60005481565b826000819055508160018190555080600281905550505050565b60015481565b6000806000851415610179576002548360015461014591906103e3565b848560005461015491906103e3565b61015e91906103e3565b610168919061038d565b610172919061038d565b90506101de565b600254600184610189919061038d565b60015461019691906103e3565b6001856101a3919061038d565b6001866101b0919061038d565b6000546101bd91906103e3565b6101c791906103e3565b6101d1919061038d565b6101db919061038d565b90505b8086148015610212575083866040516020016101fa919061033c565b60405160208183030381529060405280519060200120145b915050949350505050565b60025481565b6000813590506102328161049b565b92915050565b600081359050610247816104b2565b92915050565b6000806000806080858703121561026757610266610496565b5b600061027587828801610238565b945050602061028687828801610238565b935050604061029787828801610223565b92505060606102a887828801610238565b91505092959194509250565b6000806000606084860312156102cd576102cc610496565b5b60006102db86828701610238565b93505060206102ec86828701610238565b92505060406102fd86828701610238565b9150509250925092565b6103108161043d565b82525050565b61031f81610453565b82525050565b61033661033182610453565b61045d565b82525050565b60006103488284610325565b60208201915081905092915050565b600060208201905061036c6000830184610307565b92915050565b60006020820190506103876000830184610316565b92915050565b600061039882610453565b91506103a383610453565b9250827fffffffffffffffffffffffffffffffffffffffffffffffffffffffffffffffff038211156103d8576103d7610467565b5b828201905092915050565b60006103ee82610453565b91506103f983610453565b9250817fffffffffffffffffffffffffffffffffffffffffffffffffffffffffffffffff048311821515161561043257610431610467565b5b828202905092915050565b60008115159050919050565b6000819050919050565b6000819050919050565b6000819050919050565b7f4e487b7100000000000000000000000000000000000000000000000000000000600052601160045260246000fd5b600080fd5b6104a481610449565b81146104af57600080fd5b50565b6104bb81610453565b81146104c657600080fd5b5056fea2646970667358221220f7db09e51a223c1f75c06f619c5f2e55017eb05263bcfb8ba224e891b90e556264736f6c63430008060033",
			"opcodes": "PUSH1 0x80 PUSH1 0x40 MSTORE CALLVALUE DUP1 ISZERO PUSH2 0x10 JUMPI PUSH1 0x0 DUP1 REVERT JUMPDEST POP PUSH2 0x4FF DUP1 PUSH2 0x20 PUSH1 0x0 CODECOPY PUSH1 0x0 RETURN INVALID PUSH1 0x80 PUSH1 0x40 MSTORE CALLVALUE DUP1 ISZERO PUSH2 0x10 JUMPI PUSH1 0x0 DUP1 REVERT JUMPDEST POP PUSH1 0x4 CALLDATASIZE LT PUSH2 0x57 JUMPI PUSH1 0x0 CALLDATALOAD PUSH1 0xE0 SHR DUP1 PUSH4 0xDBE671F EQ PUSH2 0x5C JUMPI DUP1 PUSH4 0x34C5D2CE EQ PUSH2 0x7A JUMPI DUP1 PUSH4 0x4DF7E3D0 EQ PUSH2 0x96 JUMPI DUP1 PUSH4 0xB694BA4F EQ PUSH2 0xB4 JUMPI DUP1 PUSH4 0xC3DA42B8 EQ PUSH2 0xE4 JUMPI JUMPDEST PUSH1 0x0 DUP1 REVERT JUMPDEST PUSH2 0x64 PUSH2 0x102 JUMP JUMPDEST PUSH1 0x40 MLOAD PUSH2 0x71 SWAP2 SWAP1 PUSH2 0x372 JUMP JUMPDEST PUSH1 0x40 MLOAD DUP1 SWAP2 SUB SWAP1 RETURN JUMPDEST PUSH2 0x94 PUSH1 0x4 DUP1 CALLDATASIZE SUB DUP2 ADD SWAP1 PUSH2 0x8F SWAP2 SWAP1 PUSH2 0x2B4 JUMP JUMPDEST PUSH2 0x108 JUMP JUMPDEST STOP JUMPDEST PUSH2 0x9E PUSH2 0x122 JUMP JUMPDEST PUSH1 0x40 MLOAD PUSH2 0xAB SWAP2 SWAP1 PUSH2 0x372 JUMP JUMPDEST PUSH1 0x40 MLOAD DUP1 SWAP2 SUB SWAP1 RETURN JUMPDEST PUSH2 0xCE PUSH1 0x4 DUP1 CALLDATASIZE SUB DUP2 ADD SWAP1 PUSH2 0xC9 SWAP2 SWAP1 PUSH2 0x24D JUMP JUMPDEST PUSH2 0x128 JUMP JUMPDEST PUSH1 0x40 MLOAD PUSH2 0xDB SWAP2 SWAP1 PUSH2 0x357 JUMP JUMPDEST PUSH1 0x40 MLOAD DUP1 SWAP2 SUB SWAP1 RETURN JUMPDEST PUSH2 0xEC PUSH2 0x21D JUMP JUMPDEST PUSH1 0x40 MLOAD PUSH2 0xF9 SWAP2 SWAP1 PUSH2 0x372 JUMP JUMPDEST PUSH1 0x40 MLOAD DUP1 SWAP2 SUB SWAP1 RETURN JUMPDEST PUSH1 0x0 SLOAD DUP2 JUMP JUMPDEST DUP3 PUSH1 0x0 DUP2 SWAP1 SSTORE POP DUP2 PUSH1 0x1 DUP2 SWAP1 SSTORE POP DUP1 PUSH1 0x2 DUP2 SWAP1 SSTORE POP POP POP POP JUMP JUMPDEST PUSH1 0x1 SLOAD DUP2 JUMP JUMPDEST PUSH1 0x0 DUP1 PUSH1 0x0 DUP6 EQ ISZERO PUSH2 0x179 JUMPI PUSH1 0x2 SLOAD DUP4 PUSH1 0x1 SLOAD PUSH2 0x145 SWAP2 SWAP1 PUSH2 0x3E3 JUMP JUMPDEST DUP5 DUP6 PUSH1 0x0 SLOAD PUSH2 0x154 SWAP2 SWAP1 PUSH2 0x3E3 JUMP JUMPDEST PUSH2 0x15E SWAP2 SWAP1 PUSH2 0x3E3 JUMP JUMPDEST PUSH2 0x168 SWAP2 SWAP1 PUSH2 0x38D JUMP JUMPDEST PUSH2 0x172 SWAP2 SWAP1 PUSH2 0x38D JUMP JUMPDEST SWAP1 POP PUSH2 0x1DE JUMP JUMPDEST PUSH1 0x2 SLOAD PUSH1 0x1 DUP5 PUSH2 0x189 SWAP2 SWAP1 PUSH2 0x38D JUMP JUMPDEST PUSH1 0x1 SLOAD PUSH2 0x196 SWAP2 SWAP1 PUSH2 0x3E3 JUMP JUMPDEST PUSH1 0x1 DUP6 PUSH2 0x1A3 SWAP2 SWAP1 PUSH2 0x38D JUMP JUMPDEST PUSH1 0x1 DUP7 PUSH2 0x1B0 SWAP2 SWAP1 PUSH2 0x38D JUMP JUMPDEST PUSH1 0x0 SLOAD PUSH2 0x1BD SWAP2 SWAP1 PUSH2 0x3E3 JUMP JUMPDEST PUSH2 0x1C7 SWAP2 SWAP1 PUSH2 0x3E3 JUMP JUMPDEST PUSH2 0x1D1 SWAP2 SWAP1 PUSH2 0x38D JUMP JUMPDEST PUSH2 0x1DB SWAP2 SWAP1 PUSH2 0x38D JUMP JUMPDEST SWAP1 POP JUMPDEST DUP1 DUP7 EQ DUP1 ISZERO PUSH2 0x212 JUMPI POP DUP4 DUP7 PUSH1 0x40 MLOAD PUSH1 0x20 ADD PUSH2 0x1FA SWAP2 SWAP1 PUSH2 0x33C JUMP JUMPDEST PUSH1 0x40 MLOAD PUSH1 0x20 DUP2 DUP4 SUB SUB DUP2 MSTORE SWAP1 PUSH1 0x40 MSTORE DUP1 MLOAD SWAP1 PUSH1 0x20 ADD KECCAK256 EQ JUMPDEST SWAP2 POP POP SWAP5 SWAP4 POP POP POP POP JUMP JUMPDEST PUSH1 0x2 SLOAD DUP2 JUMP JUMPDEST PUSH1 0x0 DUP2 CALLDATALOAD SWAP1 POP PUSH2 0x232 DUP2 PUSH2 0x49B JUMP JUMPDEST SWAP3 SWAP2 POP POP JUMP JUMPDEST PUSH1 0x0 DUP2 CALLDATALOAD SWAP1 POP PUSH2 0x247 DUP2 PUSH2 0x4B2 JUMP JUMPDEST SWAP3 SWAP2 POP POP JUMP JUMPDEST PUSH1 0x0 DUP1 PUSH1 0x0 DUP1 PUSH1 0x80 DUP6 DUP8 SUB SLT ISZERO PUSH2 0x267 JUMPI PUSH2 0x266 PUSH2 0x496 JUMP JUMPDEST JUMPDEST PUSH1 0x0 PUSH2 0x275 DUP8 DUP3 DUP9 ADD PUSH2 0x238 JUMP JUMPDEST SWAP5 POP POP PUSH1 0x20 PUSH2 0x286 DUP8 DUP3 DUP9 ADD PUSH2 0x238 JUMP JUMPDEST SWAP4 POP POP PUSH1 0x40 PUSH2 0x297 DUP8 DUP3 DUP9 ADD PUSH2 0x223 JUMP JUMPDEST SWAP3 POP POP PUSH1 0x60 PUSH2 0x2A8 DUP8 DUP3 DUP9 ADD PUSH2 0x238 JUMP JUMPDEST SWAP2 POP POP SWAP3 SWAP6 SWAP2 SWAP5 POP SWAP3 POP JUMP JUMPDEST PUSH1 0x0 DUP1 PUSH1 0x0 PUSH1 0x60 DUP5 DUP7 SUB SLT ISZERO PUSH2 0x2CD JUMPI PUSH2 0x2CC PUSH2 0x496 JUMP JUMPDEST JUMPDEST PUSH1 0x0 PUSH2 0x2DB DUP7 DUP3 DUP8 ADD PUSH2 0x238 JUMP JUMPDEST SWAP4 POP POP PUSH1 0x20 PUSH2 0x2EC DUP7 DUP3 DUP8 ADD PUSH2 0x238 JUMP JUMPDEST SWAP3 POP POP PUSH1 0x40 PUSH2 0x2FD DUP7 DUP3 DUP8 ADD PUSH2 0x238 JUMP JUMPDEST SWAP2 POP POP SWAP3 POP SWAP3 POP SWAP3 JUMP JUMPDEST PUSH2 0x310 DUP2 PUSH2 0x43D JUMP JUMPDEST DUP3 MSTORE POP POP JUMP JUMPDEST PUSH2 0x31F DUP2 PUSH2 0x453 JUMP JUMPDEST DUP3 MSTORE POP POP JUMP JUMPDEST PUSH2 0x336 PUSH2 0x331 DUP3 PUSH2 0x453 JUMP JUMPDEST PUSH2 0x45D JUMP JUMPDEST DUP3 MSTORE POP POP JUMP JUMPDEST PUSH1 0x0 PUSH2 0x348 DUP3 DUP5 PUSH2 0x325 JUMP JUMPDEST PUSH1 0x20 DUP3 ADD SWAP2 POP DUP2 SWAP1 POP SWAP3 SWAP2 POP POP JUMP JUMPDEST PUSH1 0x0 PUSH1 0x20 DUP3 ADD SWAP1 POP PUSH2 0x36C PUSH1 0x0 DUP4 ADD DUP5 PUSH2 0x307 JUMP JUMPDEST SWAP3 SWAP2 POP POP JUMP JUMPDEST PUSH1 0x0 PUSH1 0x20 DUP3 ADD SWAP1 POP PUSH2 0x387 PUSH1 0x0 DUP4 ADD DUP5 PUSH2 0x316 JUMP JUMPDEST SWAP3 SWAP2 POP POP JUMP JUMPDEST PUSH1 0x0 PUSH2 0x398 DUP3 PUSH2 0x453 JUMP JUMPDEST SWAP2 POP PUSH2 0x3A3 DUP4 PUSH2 0x453 JUMP JUMPDEST SWAP3 POP DUP3 PUSH32 0xFFFFFFFFFFFFFFFFFFFFFFFFFFFFFFFFFFFFFFFFFFFFFFFFFFFFFFFFFFFFFFFF SUB DUP3 GT ISZERO PUSH2 0x3D8 JUMPI PUSH2 0x3D7 PUSH2 0x467 JUMP JUMPDEST JUMPDEST DUP3 DUP3 ADD SWAP1 POP SWAP3 SWAP2 POP POP JUMP JUMPDEST PUSH1 0x0 PUSH2 0x3EE DUP3 PUSH2 0x453 JUMP JUMPDEST SWAP2 POP PUSH2 0x3F9 DUP4 PUSH2 0x453 JUMP JUMPDEST SWAP3 POP DUP2 PUSH32 0xFFFFFFFFFFFFFFFFFFFFFFFFFFFFFFFFFFFFFFFFFFFFFFFFFFFFFFFFFFFFFFFF DIV DUP4 GT DUP3 ISZERO ISZERO AND ISZERO PUSH2 0x432 JUMPI PUSH2 0x431 PUSH2 0x467 JUMP JUMPDEST JUMPDEST DUP3 DUP3 MUL SWAP1 POP SWAP3 SWAP2 POP POP JUMP JUMPDEST PUSH1 0x0 DUP2 ISZERO ISZERO SWAP1 POP SWAP2 SWAP1 POP JUMP JUMPDEST PUSH1 0x0 DUP2 SWAP1 POP SWAP2 SWAP1 POP JUMP JUMPDEST PUSH1 0x0 DUP2 SWAP1 POP SWAP2 SWAP1 POP JUMP JUMPDEST PUSH1 0x0 DUP2 SWAP1 POP SWAP2 SWAP1 POP JUMP JUMPDEST PUSH32 0x4E487B7100000000000000000000000000000000000000000000000000000000 PUSH1 0x0 MSTORE PUSH1 0x11 PUSH1 0x4 MSTORE PUSH1 0x24 PUSH1 0x0 REVERT JUMPDEST PUSH1 0x0 DUP1 REVERT JUMPDEST PUSH2 0x4A4 DUP2 PUSH2 0x449 JUMP JUMPDEST DUP2 EQ PUSH2 0x4AF JUMPI PUSH1 0x0 DUP1 REVERT JUMPDEST POP JUMP JUMPDEST PUSH2 0x4BB DUP2 PUSH2 0x453 JUMP JUMPDEST DUP2 EQ PUSH2 0x4C6 JUMPI PUSH1 0x0 DUP1 REVERT JUMPDEST POP JUMP INVALID LOG2 PUSH5 0x6970667358 0x22 SLT KECCAK256 0xF7 0xDB MULMOD 0xE5 BYTE 0x22 EXTCODECOPY 0x1F PUSH22 0xC06F619C5F2E55017EB05263BCFB8BA224E891B90E55 PUSH3 0x64736F PUSH13 0x63430008060033000000000000 "
		},
		"gasEstimates": {
			"creation": {
				"codeDepositCost": "255800",
				"executionCost": "294",
				"totalCost": "256094"
			},
			"external": {
				"a()": "2407",
				"b()": "2451",
				"c()": "2495",
				"setParameters(uint256,uint256,uint256)": "infinite",
				"verify(uint256,uint256,bytes32,uint256)": "infinite"
			}
		},
		"methodIdentifiers": {
			"a()": "0dbe671f",
			"b()": "4df7e3d0",
			"c()": "c3da42b8",
			"setParameters(uint256,uint256,uint256)": "34c5d2ce",
			"verify(uint256,uint256,bytes32,uint256)": "b694ba4f"
		}
	},
	"abi": [
		{
			"inputs": [],
			"name": "a",
			"outputs": [
				{
					"internalType": "uint256",
					"name": "",
					"type": "uint256"
				}
			],
			"stateMutability": "view",
			"type": "function"
		},
		{
			"inputs": [],
			"name": "b",
			"outputs": [
				{
					"internalType": "uint256",
					"name": "",
					"type": "uint256"
				}
			],
			"stateMutability": "view",
			"type": "function"
		},
		{
			"inputs": [],
			"name": "c",
			"outputs": [
				{
					"internalType": "uint256",
					"name": "",
					"type": "uint256"
				}
			],
			"stateMutability": "view",
			"type": "function"
		},
		{
			"inputs": [
				{
					"internalType": "uint256",
					"name": "_a",
					"type": "uint256"
				},
				{
					"internalType": "uint256",
					"name": "_b",
					"type": "uint256"
				},
				{
					"internalType": "uint256",
					"name": "_c",
					"type": "uint256"
				}
			],
			"name": "setParameters",
			"outputs": [],
			"stateMutability": "nonpayable",
			"type": "function"
		},
		{
			"inputs": [
				{
					"internalType": "uint256",
					"name": "_y",
					"type": "uint256"
				},
				{
					"internalType": "uint256",
					"name": "_bit",
					"type": "uint256"
				},
				{
					"internalType": "bytes32",
					"name": "_commitment",
					"type": "bytes32"
				},
				{
					"internalType": "uint256",
					"name": "_r",
					"type": "uint256"
				}
			],
			"name": "verify",
			"outputs": [
				{
					"internalType": "bool",
					"name": "",
					"type": "bool"
				}
			],
			"stateMutability": "view",
			"type": "function"
		}
	]
}